:1000000001308A00942900000C2644292022E5337F
:1000100065393D10A53A000026308400831300089E
:10002000031920280130F800F701F70B1528F80B09
:1000300014284A30F700F70B1B281E28800B1228C3
:1000400008002D0EF039F7000F3006057704860002
:10005000000006142B28061008000608F700060EFC
:100060000F39F80008008316061086100611831257
:1000700086100F3083160605F038860083120615A9
:100080000000061400002D207808AD0006100000C6
:10009000061400002D207808AC0006100F308316DF
:1000A0000605860083122D0EF700F030F70577085D
:1000B0002C04F8007808AC00AC1B39282A1C8610E8
:1000C0002A18861400000611000006102B0EAC0042
:1000D0000F30AC052C08AD0021202B080F39AC00E7
:1000E000AD00212008002830A2000C30A300013010
:1000F000A4000630A5000610861006110F308316E6
:10010000060586000610861006110F308312A60021
:100110000C200130A1002108033C031C9728033068
:10012000AD0021200530A6000C20A10A8B2802304A
:10013000AD0021200530A6000C20A1012108033CC0
:10014000031CAE2822302107840083130008A60078
:10015000AA012608AB003320A10A9E288A110A12A0
:10016000BE29270BB428B7284030A800B828A8011A
:1001700001302602A80728088038A900AA0129080A
:10018000AB00332008002508073A0319D1280B3AA1
:100190000319D628063A0319DE28023A0319E4287F
:1001A000E9280130A600A700B120EE28AA010130FD
:1001B000AB0033200230A6000C20EE280130A60050
:1001C0000230A700B120EE28AA011030AB00332086
:1001D000EE280130AA002508AB00332008000B08E8
:1001E000A2008B13831603178C170C140000000059
:1001F00083120313A21B8B170318262903170C085D
:100200007F390313A20003170D080313A30003177C
:100210000F080313A4002208A500C3202308031716
:100220008D000313240803178F0003130B08A50088
:100230008B13831603178C170C1400000000831215
:100240000313A51B8B17A10B2629452903170C0D9A
:100250000E0D7F390313A20003170D080313A3002B
:1002600003170F080313A4002208A500C3202308C6
:1002700003178D000313240803178F008D0A031939
:100280008F0A03100313A10BEF288A110A12DA292F
:100290002408F8012302031850292308F7005C29D9
:1002A000F7010830A500A30DF70D24087702031805
:1002B000F700F80DA50B5329080078082108A300C2
:1002C0006430A40048217708A10078083030031D6D
:1002D0007029A21C7729A2197729221A20307329A4
:1002E000A21122122214F8077808A500C3202108C1
:1002F000A3000A30A40048217708A1007808303014
:10030000031D8829A2198C29221C8C29221A20302D
:10031000F8077808A500C3203030A1072108A50000
:10032000C3208A110A12DF2903081F3983008316AC
:100330001F149F141F159F1183130912831290011C
:100340000030F8009200003083169200F0308312E3
:1003500097059D051F139F1783169F1783121F1460
:1003600083161F109F101F119F1120308500003031
:100370008600870083128601870173282030F800E9
:100380001F08C73978049F001F151F19C529831638
:100390001E088312A0000630F700F70BCD290000DD
:1003A000043003178D0000308F0003100C3003134E
:1003B000A100EF282008A1001B30A2005D296430B5
:1003C000A6000C202008F53A0319FC293B3A031932
:1003D000FE296C3A0319002AF63A0319022AFE3A5A
:1003E0000319042A553A0319062AAA3A0319082AB6
:1003F000083A03190A2A0B2A87160C2A87160C2A90
:1004000087160C2A87120C2A87160C2A87160C2AA4
:0C04100087120C2A87128712C42963008F
:02400E00733B02
:00000001FF
;PIC16F877
;CRC=D454  CREATED="13-Mar-22 23:23"
